:020000040800F2
:10000000303D00207D040008DD010008DF0100080C
:10001000E3010008E7010008EB0100080000000010
:10002000000000000000000000000000EF010008D8
:10003000F101000800000000F3010008F5010008CC
:100040009704000897040008970400089704000824
:100050009704000897040008970400089704000814
:100060009704000897040008970400089704000804
:1000700097040008970400089704000897040008F4
:1000800097040008970400089704000897040008E4
:1000900097040008970400089704000897040008D4
:1000A00097040008970400089704000897040008C4
:1000B00045300008032D00082D3000089704000883
:1000C00097040008970400089704000897040008A4
:1000D00097040008AD25000897040008953500082E
:1000E00089430008970400089704000800F002F80C
:1000F00000F05FF80AA090E8000C82448344AAF163
:100100000107DA4501D100F054F8AFF2090EBAE860
:100110000F0013F0010F18BFFB1A43F0010318473B
:10012000C0B80000E0B800000A444FF0000C10F81E
:10013000013B13F0070408BF10F8014B1D1108BF65
:1001400010F8015B641E05D010F8016B641E01F805
:10015000016BF9D113F0080F1EBF10F8014BAD1C55
:100160000C1B09D16D1E58BF01F801CBFAD505E073
:1001700014F8016B01F8016B6D1EF9D59142D6D3CD
:10018000704700000023002400250026103A28BFF5
:1001900078C1FBD8520728BF30C148BF0B607047F9
:1001A000642908F0B580002070471FB51FBD10B549
:1001B00010BD08F07DFA1146FFF7F7FF00F03CF99B
:1001C00008F09BFA03B4FFF7F2FF03BC02F094F9C6
:1001D00030BF72B662B680F308887047704700BFC0
:1001E000FEE700BFFEE700BFFEE700BFFEE7704787
:1001F00070477047704700000CB5002001900090D8
:100200006C48006840F480306A49086000BF694863
:10021000006800F4003000900198401C01900098A4
:1002200018B90198B0F5A06FF1D16248006800F4E8
:10023000003010B10120009001E0002000900098F3
:10024000012843D15C48006840F010005A4908601A
:100250000846006820F0030008600846006840F087
:1002600002000860534840685249486008464068A8
:1002700048600846406840F480604860084640682E
:1002800020F47C1048600846406840F4E81048605C
:100290000846006840F08070086000BF454800686C
:1002A00000F000700028F9D04248406820F00300B8
:1002B000404948600846406840F00200486000BF7E
:1002C0003C48406800F00C000828F9D10CBD10B57E
:1002D000FFF792FF10BD10B53648006840F00100EE
:1002E000344908600846406834490840314948604C
:1002F00008460068324908402E49086008460068F0
:1003000020F4802008600846406820F4FE00486021
:100310004FF41F008860FFF7DAFF4FF000602949B3
:10032000086010BD10B5002100200022214B5B6841
:1003300003F00C0121B1042906D0082928D107E0D7
:10034000214B224C236027E01F4B204C236023E0ED
:10035000184B5B6803F47010164B5B6803F4803233
:10036000022303EB904022B9194B4343174C2360FF
:100370000DE0104B5B6803F4003323B1144B43438F
:10038000124C236003E0104B4343104C236003E006
:100390000D4B0E4C236000BF00BF064B5B68C3F3E0
:1003A00003130C4CE15C094B1B68CB40074C2360EA
:1003B00010BD000000100240002002400000FFF8C5
:1003C000FFFFF6FE08ED00E000127A0000000020BA
:1003D00000093D000400002010B501F0C5FE4FF4F7
:1003E000E13002F097F8022002F018F8012002F044
:1003F00015F803F021FA03F038FA03F049FA02F095
:100400001BF9022001F020FF002143F63F0002F01B
:10041000F9FC4FF4E13003F061F902F04BFD02F01A
:1004200096FD02F023FE07F030FB07F042FB02F0DE
:100430002EFB03F0C9F910BDFFF7CEFF02E00BA0C1
:1004400007F026FF00210B48006809F00BFC05D1DE
:1004500000210948006809F005FCF0D005E003F030
:100460004BFA03F06AFA00BFFEE7F8E757616974D8
:10047000200D0A00A4000020A800002009488047A1
:1004800009480047FEE7FEE7FEE7FEE7FEE7FEE776
:10049000FEE7FEE7FEE7FEE704480549054A064B8E
:1004A00070470000D7020008ED0000083037002038
:1004B000303D0020303900203039002031490143DF
:1004C000314A1160704770B5002100230F22C478B3
:1004D00004B32D4C246804F4E064C4F5E064210AFC
:1004E000C1F10403CA40447804FA03F1847814404B
:1004F00021430901254C0678A155047804F01F0515
:100500000124AC4005786D11AD0005F1E025C5F87A
:10051000004109E0047804F01F050124AC401C4DA3
:100520000678761145F8264070BD1A4A0A40024303
:10053000154B1B1F1A60704739B1134A121D126800
:100540000243114B1B1D1A6006E00F4A121D126870
:1005500082430D4B1B1D1A607047042808D14FF0D1
:10056000E021096941F004014FF0E022116107E048
:100570004FF0E021096921F004014FF0E022116100
:10058000704700000000FA050CED00E000E400E018
:1005900080E100E080FFFF1F10B5012000F0A2FC09
:1005A000002000F09FFC10BD2A49086070472949CF
:1005B000091F086070472749843108607047014669
:1005C0000020254A10884FF67F4210400843224AF7
:1005D00010807047014600201F4A10884FF6807235
:1005E000104008431C4A1080704708B50022009252
:1005F000194A2C3A0092009A02440092009A116023
:1006000008BD08B501460020009013482C38009022
:100610000098084400900098008808BD0D489C3060
:100620000068C0B270470C480830008840F00100F4
:1006300009490831088070470648A0300068C0B2F8
:10064000704705480830008840F002000249083130
:100650000880704704860D422C6C004000204449FD
:100660000860091D0860091D0860091D08604148EF
:100670003F4914310860704700213D498279002AC2
:100680003AD00A46126803689A430B461A600A1D5C
:10069000126803689A430B1D1A60027911440A68B4
:1006A00003681A430A60324A0832126803689A43A0
:1006B0002F4B08331A601A1D126803689A432C4B9B
:1006C0000C331A604279102A0ED11A1F126803687F
:1006D0001A43274B08331A601A1D126803681A431D
:1006E000234B0C331A600DE02149427911440A680A
:1006F00003681A430A6005E0027911440A68036836
:100700009A430A6070470021016001710C21417118
:100710000021817170471649103109680143144A5C
:1007200010321160704701460020114A14321268DD
:100730000A400AB1012000E0002070470C49143142
:1007400008607047014600200022094B1B6803EA3D
:100750000102074B14331B680B4013B10AB101208F
:1007600000E0002070470249143108607047000023
:1007700000040140FFFF0F0010B50446CC4884423E
:1007800008D10121042000F093FB0021042000F097
:100790008FFB46E0C748844208D10121082000F0C1
:1007A00087FB0021082000F083FB3AE0C248844226
:1007B00008D10121102000F07BFB0021102000F067
:1007C00077FB2EE0BD48844208D10121202000F0B3
:1007D0006FFB0021202000F06BFB22E0B848844230
:1007E00008D10121402000F063FB0021402000F0EF
:1007F0005FFB16E0B348844208D10121802000F05D
:1008000057FB0021802000F053FB0AE0AE488442F1
:1008100007D10121801500F04BFB0021A01500F04D
:1008200047FB10BD10B50121084600F041FB002137
:10083000012000F03DFB10BD2DE9F04102460025EE
:100840000026002000230024002791F803C00CF0AC
:100850000F0591F803C00CF0100CBCF1000F03D091
:1008600091F802C04CEA050591F800C0BCF1000FF8
:1008700031D0146800202BE04FF0010C0CFA00F38B
:10088000B1F800C00CEA03069E4220D183004FF06D
:100890000F0C0CFA03F7BC4305FA03FC4CEA040402
:1008A00091F803C0BCF1280F06D14FF0010C0CFAEF
:1008B00000FCC2F814C00AE091F803C0BCF1480F74
:1008C00005D14FF0010C0CFA00FCC2F810C0401C1E
:1008D0000828D1D31460B1F800C0BCF1FF0F34DD9B
:1008E000546800202EE000F1080C4FF0010808FACF
:1008F0000CF3B1F800C00CEA03069E4221D183003C
:100900004FF00F0C0CFA03F7BC4305FA03FC4CEA5A
:10091000040491F803C0BCF1280F05D100F1080CC4
:1009200008FA0CF8C2F8148091F803C0BCF1480F23
:1009300007D100F1080C4FF0010808FA0CF8C2F8D2
:100940001080401C0828CED35460BDE8F0814FF6DB
:10095000FF710180022181700421C170704702463D
:10096000002093680B400BB1012000E0002070478D
:100970000146886880B2704702460020D3680B4069
:100980000BB1012000E0002070470146C86880B22A
:10099000704701617047416170470AB1016100E031
:1009A00041617047C16070474FF480320A438261F1
:1009B0008161826182698269704702460020434BEF
:1009C00018684FF68073184040EA021008433F4B06
:1009D000186070473E49C8617047F0B50A46002369
:1009E00000240021002500F00046B6F1004F02D19E
:1009F000364EF16901E0354E7168C0F3034583B2AC
:100A000000F44016B6F5401F08D121F070612F4E5A
:100A1000766826F070662D4F7E6012E000F4801636
:100A2000B6F5801F06D1032606FA05F4A14341F06E
:100A3000706106E0460D360103FA06F6B14341F057
:100A4000706122B1460D360103FA06F6314300F01B
:100A50000046B6F1004F02D11C4EF16101E01B4E81
:100A60007160F0BD30B500228B071C0F0F2303FA15
:100A700004F2164B08338C1053F824309343134C74
:100A800008348D1044F8253023468C1053F8243058
:100A90008C07240F00FA04F423430C4C08348D1007
:100AA00044F8253030BD0A49DC3108607047000049
:100AB00000080140000C01400010014000140140FA
:100AC00000180140001C01400020014000000140CE
:100AD0000000204210B50121080700F0F6F90021BE
:100AE0004FF0805000F0F1F910BD2A4908627047BC
:100AF00028490861704701460020274A106820F005
:100B0000E0000843106070472249A0310860704738
:100B100010B502460020204B186820F00300104357
:100B200018601E4B1B6843F004031C4C2360012912
:100B300001D130BF00E020BF184B1B6823F0040335
:100B4000164C236010BD1448006840F004001249A0
:100B500008600846006840F0020008600F4800681E
:100B600040F004000D49086000BF00BF30BF70476F
:100B700001460020084A52680A400AB1012000E0FC
:100B8000002070470449096841EA8001024A116067
:100B90007047000000000E420070004010ED00E0C1
:100BA000DF48006840F00100DD4908600846406801
:100BB000DC490840DA49486008460068DA490840DC
:100BC000D74908600846006820F48020086008467D
:100BD000406820F4FE0048604FF41F0088607047B2
:100BE000CF49096821F48031CD4A11601146096866
:100BF00021F480211160B0F5803F03D0B0F5802F43
:100C00000ED106E0C649096841F48031C44A11603A
:100C100007E0C349096841F4A021C14A116000E01E
:100C200000BF00BF704710B501460022002300201E
:100C30004A11012A02D1BA4C236806E0022A02D1E5
:100C4000B74C236A01E0B64C636A01F01F0201242D
:100C500094401C400CB1012000E0002010BD38B5CC
:100C6000002000900024002500BF3120FFF7DBFFAB
:100C700005460098401C00900098B0F5A06F01D088
:100C8000002DF2D03120FFF7CEFF08B1012400E0A3
:100C90000024204638BD01460020A14A106820F0FB
:100CA000F80040EAC10010607047A0490860704732
:100CB000024600209A4B586820F47C1042EA010357
:100CC0001843974B5860704798490866704701462B
:100CD0000020934A506820F003000843506070479A
:100CE0008F48406800F00C007047014600208C4A95
:100CF000506820F0F0000843506070470146002023
:100D0000874A506820F4E06008435060704701460D
:100D10000020834A506820F4605040EAC1005060CF
:100D2000704729B17E4A527A02437D4B5A7204E0E1
:100D30007B4A527A82437A4B5A7270477B49D83148
:100D40000860704701460020754A506820F4404012
:100D50000843506070470021714A20321170704A78
:100D600082F82010012802D004280AD104E00121D1
:100D70006B4A2032117005E00521694A203211705A
:100D800000E000BF00BF70476949086070476449D0
:100D9000096A0143624A1162704765494439086033
:100DA000704730B500210022002400235C4D6D689F
:100DB00005F00C0121B1042905D0082923D105E053
:100DC0005C4D056022E05B4D05601FE0544D6D6891
:100DD00005F47012524D6D6805F48034022505EB60
:100DE00092421CB9544D554305600BE04C4D6D6863
:100DF00005F400351DB1504D5543056002E04D4DE1
:100E00005543056002E04B4D056000BF00BF444DF7
:100E10006D6805F0F0010909484D6B5C0568DD401F
:100E200045603F4D6D6805F4E061090A434D6B5C18
:100E30004568DD4085603A4D6D6805F46051C90A2A
:100E40003E4D6B5C4568DD40C560354D6D6805F411
:100E50004041890B3A4D6B5CC568B5FBF3F5056104
:100E600030BD29B12E4A526902432D4B5A6104E02C
:100E70002B4A526982432A4B5A61704729B1284A4A
:100E800092690243264B9A6104E0254A92698243A3
:100E9000234B9A61704729B1214AD2690243204B02
:100EA000DA6104E01E4AD26982431D4BDA61704761
:100EB00029B11B4AD2680243194BDA6004E0184A90
:100EC000D2688243164BDA60704729B1144A12691E
:100ED0000243134B1A6104E0114A12698243104B1A
:100EE0001A61704712494039086070470F49C86459
:100EF00070470B49C87170470948406A40F08070DC
:100F000007494862704701460020054A92680A4036
:100F10000AB1012000E00020704701498872704743
:100F2000001002400000FFF8FFFFF6FE0000424202
:100F30008004424200127A0000093D007000002047
:100F40008000002010B50446FE48844208D10121EB
:100F5000C014FFF7ADFF0021E014FFF7A9FFC4E0C4
:100F6000B4F1804F08D101210846FFF7AEFF002100
:100F70000120FFF7AAFFB8E0F348844208D101211D
:100F80000220FFF7A2FF00210220FFF79EFFACE046
:100F9000EE48844208D101210420FFF796FF00218A
:100FA0000420FFF792FFA0E0E948844208D1012124
:100FB0000820FFF78AFF00210820FFF786FF94E052
:100FC000E448844208D101211020FFF77EFF002170
:100FD0001020FFF77AFF88E0DF48844208D1012122
:100FE0002020FFF772FF00212020FFF76EFF7CE03A
:100FF000DA48844208D101214014FFF759FF00214B
:101000006014FFF755FF70E0D548844209D10121F3
:10101000C804FFF74DFF00214FF40020FFF748FF01
:1010200063E0D048844209D101210805FFF740FF61
:1010300000214FF48010FFF73BFF56E0CA4884427E
:1010400009D101214805FFF733FF00214FF40010BB
:10105000FFF72EFF49E0C548844208D10121402016
:10106000FFF733FF00214020FFF72FFF3DE0C0488E
:10107000844208D101218020FFF727FF0021802032
:10108000FFF723FF31E0BB48844208D101218015DE
:10109000FFF71BFF0021A015FFF717FF25E0B6485B
:1010A000844209D101210804FFF702FF00214FF417
:1010B0008030FFF7FDFE18E0B048844209D10121DD
:1010C0004804FFF7F5FE00214FF40030FFF7F0FE73
:1010D0000BE0AB48844208D101218804FFF7E8FE09
:1010E00000214FF48020FFF7E3FE10BD00220288AC
:1010F000944B98420ED0994B98420BD0B0F1804F50
:1011000008D0914B984205D0904B984202D0904B1A
:10111000984204D14FF68F731A404B881A438D4B77
:10112000984207D08C4B984204D04FF6FF431A40A8
:10113000CB881A4302808B8883850B880385814B7B
:1011400098420BD0854B984208D08B4B984205D0E3
:101150008A4B984202D08A4B984201D10B7A03867F
:1011600001238382704770B5002400220023058C80
:101170004FF6FE7635400584028C8388048B4FF64B
:101180008F752C40B51E2C400D882C43751E2A40AF
:101190000D892A434D882A436A4DA8420BD06F4DD2
:1011A000A84208D0744DA84205D0744DA84202D080
:1011B000734DA84213D14FF6F7752A404D892A4343
:1011C0004FF6FB752A408D882A434FF6FF652B406A
:1011D0004FF6FF552B408D892B43CD892B438380C0
:1011E0000483CD888586028470BD70B500240022FA
:1011F0000023058C4FF6EF7635400584028C8388FA
:10120000048B48F6FF752C404FF6FF452C400D88A7
:101210004FF6FF7606EA05252C434FF6DF752A4088
:101220000D8906EA05152A434D8806EA05152A4365
:10123000444DA84202D0494DA8421DD14FF67F75BA
:101240002A404D894FF6FF7606EA05152A434FF6E8
:10125000BF752A408D8806EA05152A434FF6FF35EB
:101260002B404FF2FF752B408D8906EA85052B43F5
:10127000CD8906EA85052B4383800483CD880587C5
:10128000028470BD70B5002400220023058C4FF647
:10129000FF6635400584028C8388848B4FF68F75FA
:1012A0002C404FF6FC752C400D882C434FF6FF5513
:1012B0002A400D894FF6FF7606EA05252A434D8818
:1012C00006EA05252A431F4DA84202D0234DA84215
:1012D0001DD14FF2FF752A404D894FF6FF7606EA81
:1012E00005252A434FF6FF352A408D8806EA052555
:1012F0002A434EF6FF752B404DF6FF752B408D8926
:1013000006EA05152B43CD8906EA05152B43838094
:101310008483CD888587028470BD70B50022002348
:101320000024058C4EF6FF7635400584038C8488B6
:10133000828B48F6FF752A404FF6FF452A400D88FC
:1013400020E00000002C01400004004000080040A4
:10135000000C004000100040001400400034014028
:10136000004C014000500140005401400018004072
:10137000001C0040002000400040014000440140AB
:10138000004801404FF6FF7606EA05252A434DF650
:10139000FF752B400D8906EA05352B434D8806EA7B
:1013A00005352B43FA4DA84202D0FA4DA84208D188
:1013B0004BF6FF752C408D894FF6FF7606EA8515B2
:1013C0002C4384808283CD88A0F84050038470BD74
:1013D000828B4FF2FF331A408283828B4FF6FF736A
:1013E00003EA01231A4382837047F0B50C46154681
:1013F000002200210026078C4EF6FF7C07EA0C072E
:101400000784828B018C4FF6FF7707EA043640F69B
:10141000FF473A404FF6FF7707EA05273A434FF672
:10142000FF7707EA03373A43D94FB8420ED0D94F76
:10143000B8420BD0B0F1804F08D0D74FB84205D09A
:10144000D64FB84202D0D64FB84206D14DF6FF77FC
:10145000394046F48057394305E047F6FF57394095
:1014600044F48057394382830184F0BD828B4FF668
:10147000F3731A408283828B0A4382837047F0B5EC
:101480000C461546002200210026078C4FF6FF6C03
:1014900007EA0C070784828B018C4FF6FF7707EA77
:1014A00004264FF60C773A404FF6FF7707EA03170A
:1014B0002F433A43B64FB8420ED0B64FB8420BD086
:1014C000B0F1804F08D0B44FB84205D0B34FB84206
:1014D00002D0B34FB84206D14FF6FF57394046F419
:1014E0008077394305E04FF2FF57394044F4807765
:1014F000394382830184F0BD028B4FF2FF331A40DF
:101500000283028B4FF6FF7303EA01231A4302831F
:101510007047F0B50C461546002200210026078CC6
:101520004FF6EF7C07EA0C070784028B018C4FF61D
:10153000FF7707EA041640F6FF473A404FF6FF7779
:1015400007EA03373A434FF6FF7707EA05273A439E
:101550008F4FB8420ED08F4FB8420BD0B0F1804FB2
:1015600008D08D4FB84205D08C4FB84202D08C4F76
:10157000B84206D14FF6DF77394046F010073943BD
:1015800005E04FF65F77394044F010073943028396
:101590000184F0BD028B4FF6F3731A400283028B75
:1015A0000A4302837047F0B50C461546002200211D
:1015B000068C4FF6FE773E400684028B018C4FF678
:1015C0000C7632407E1C06EA03162E433243704EE0
:1015D000B0420ED06F4EB0420BD0B0F1804F08D069
:1015E0006D4EB04205D06D4EB04202D06C4EB0424E
:1015F00006D14FF6FD76314044F00106314305E057
:101600004FF6F576314044F0010631430283018400
:10161000F0BD70B505460C465D4885420ED05D486C
:1016200085420BD0B5F1804F08D05B48854205D08C
:101630005A48854202D05A48854200D100E000BF96
:10164000208850B92389A28861882846FFF7ABFF1C
:10165000E1882846FFF79EFF25E0208804280AD16C
:101660002389A28861882846FFF753FFE18828462E
:10167000FFF742FF17E0208808280AD12389A288B3
:1016800061882846FFF7FBFEE1882846FFF7EEFE5B
:1016900009E02389A28861882846FFF7A6FEE18831
:1016A0002846FFF795FE70BD2DE9F04105460C4632
:1016B00000260127608808B9022600E00026A088DD
:1016C000012801D1022700E001272088A0B9238941
:1016D000A28861882846FFF766FFE1882846FFF761
:1016E00059FF23893A4631462846FFF712FFE18821
:1016F0002846FFF701FF13E02389A2886188284666
:10170000FFF707FFE1882846FFF7F6FE23893A46F0
:1017100031462846FFF747FFE1882846FFF73AFFA2
:10172000BDE8F0810A884B881A438B881A43CB881E
:101730001A430B891A434B891A438B891A43A0F821
:10174000442070474FF6FF71818000210180C180E5
:101750004180017270470021018041808180C180F9
:10176000018141818181C1817047002101804180D7
:10177000012181800021C180018170470021018009
:1017800041808180C1800181418181817047000059
:10179000002C0140003401400004004000080040DB
:1017A000000C004021B1028842F00102028004E0F6
:1017B00002884FF6FE731A400280704731B1B0F8CC
:1017C000442042F40042A0F8442005E0B0F8442050
:1017D000C2F30E02A0F8442070471AB183890B436C
:1017E000838102E083898B438381704781827047C4
:1017F00041EA0203A0F8483070471AB183890B43CD
:10180000838102E083898B438381704701894FF68E
:10181000F8721140018170470A46002101894FF694
:101820008F73194011430181704730B504460D464E
:1018300029462046FFF7F0FF208940F0070020816D
:1018400030BD2DE9F04104460D4616461F46602D79
:1018500006D13B46012231462046FFF75AFE05E0FD
:101860003B46012231462046FFF79DFE2946204691
:10187000FFF7D2FF208940F007002081BDE8F0810A
:1018800030B50C4600210189C9B24FF6FF7505EA53
:101890000325154325432943018130BD2DE9F0413E
:1018A00005460E4617469846002443463A463146BA
:1018B0002846FFF7E5FF2C894FF6F870044044F006
:1018C00007044FF68F70044044F070042C81BDE88B
:1018D000F081F0B504460D4616461F463B4632469B
:1018E00029462046FFF7CCFF208940F48040208124
:1018F000F0BD0185828270470A46002101884FF6BB
:101900008F731940114301807047F0B50C4615469E
:101910001E460021002200230189028B038C4FF612
:10192000F877394021434FF6FC473A4040F201171F
:101930003A434FF6DD773B404FF6FF7707EA06174D
:101940002F433B43018102830384F0BD0A460021FB
:10195000018B4FF68F7319401143018370470A467C
:101960000021018B48F6FF7319404FF6FF7303EA1D
:1019700002231943018370470A460021818B4FF6E9
:101980008F7319401143818370470A460021818B70
:1019900048F6FF7319404FF6FF7303EA0223194319
:1019A0008183704721B1028842F08002028004E006
:1019B00002884FF67F731A400280704721B18288F7
:1019C00042F00402828004E082884FF6FB731A40E2
:1019D0008280704721B1828842F00802828004E050
:1019E00082884FF6F7731A408280704721B182884F
:1019F00042F00102828004E082884FF6FE731A40B2
:101A0000828070470A460021018B4FF6F773194018
:101A10001143018370470A460021018B4FF2FF7387
:101A200019404FF6FF7303EA0223194301837047FD
:101A30000A460021818B4FF6F773194011438183C9
:101A400070470A460021818B4FF2FF7319404FF611
:101A5000FF7303EA02231943818370470A4600217A
:101A6000018B4FF6FB7319401143018370470A46FF
:101A70000021018B4FF6FF3319404FF6FF7303EA45
:101A800002231943018370470A460021818B4FF6D8
:101A9000FB7319401143818370470A460021818BF3
:101AA0004FF6FF3319404FF6FF7303EA0223194341
:101AB000818370470A460021018B4FF67F731940DE
:101AC0001143018370470A460021018BC1F30E01C7
:101AD0004FF6FF7303EA02231943018370470A4656
:101AE0000021818B4FF67F7319401143818370472A
:101AF0000A460021818BC1F30E014FF6FF7303EA02
:101B000002231943818370470A460021018C4FF656
:101B1000FD7319401143018470470A460021018C6E
:101B20004FF6F77319401143018470470A460021AC
:101B3000018C4FF6DF7319404FF6FF7303EA02136F
:101B40001943018470470A460021018C4FF67F73C8
:101B500019404FF6FF7303EA0213194301847047DB
:101B60000A460021018C4FF6FF5319404FF6FF73D0
:101B700003EA02231943018470470A460021018CBD
:101B80004FF2FF7319404FF6FF7303EA0223194324
:101B9000018470470A460021018C4DF6FF731940FD
:101BA0004FF6FF7303EA023319430184704730B5DF
:101BB000002301248C40A3B2048C9C430484048C35
:101BC00002FA01F5ADB22C43048430BD30B50023D8
:101BD00004248C40A3B2048C9C430484048C02FA39
:101BE00001F5ADB22C43048430BD70B5034600202E
:101BF00000241846183001258D40ACB21D8CA54339
:101C00001D8409B1082909D100EB6100056825F0A0
:101C1000700505600568154305600EE00D1FC5F3EE
:101C20004E052844056825F4E045056005684FF633
:101C3000FF7606EA02263543056070BD21B10288B1
:101C400042F00202028004E002884FF6FD731A405F
:101C50000280704721B1028842F00402028004E051
:101C600002884FF6FB731A400280704721B18288C8
:101C700042F08002828004E082884FF67F731A402F
:101C80008280704702884FF6F7731A4002800288FC
:101C90000A430280704782884FF68F731A40828011
:101CA00082880A438280704702894FF6F8731A408F
:101CB000028102890A430281704702894FF67F73CD
:101CC0001A40028102890A43028170478184704769
:101CD000818570478186704701877047818770478B
:101CE000A0F84010704702884FF6FF431A40028068
:101CF00002880A43028070470146888E7047014679
:101D0000088F70470146888F70470146B1F8400040
:101D100070470146888C70470146088D704702461F
:101D20000020138A0B400BB1012000E00020704717
:101D3000CA430282704730B50246002000230024C7
:101D4000158A05EA0103958905EA010413B10CB16E
:101D5000012000E0002030BDCA430282704700002D
:101D600010B50446FB48844209D101218803FFF7DE
:101D70009FF800214FF48040FFF79AF832E0F648D0
:101D8000844209D101214804FFF79FF800214FF454
:101D90000030FFF79AF825E0F048844209D101218C
:101DA0008804FFF792F800214FF48020FFF78DF8A8
:101DB00018E0EB48844209D10121C804FFF785F8F7
:101DC00000214FF40020FFF780F80BE0E548844243
:101DD00008D101210805FFF778F800214FF48010A1
:101DE000FFF773F810BD2DE9F04786B005460E46A3
:101DF0000024A24600BFA1460027B08900B100BF61
:101E00002F462C8A4CF6FF700440F08804432C8245
:101E1000AC894EF6F3100440B088318908437189CB
:101E200008430443AC81AC8A4FF6FF400440B089BC
:101E30000443AC8201A8FEF7B4FFC648874202D132
:101E4000DDF810A001E0DDF80CA0A88900F4004046
:101E500040B10AEBCA0000EB0A1031684900B0FB40
:101E6000F1F807E00AEBCA0000EB0A1031688900BC
:101E7000B0FBF1F86420B8FBF0F004012009642104
:101E800001FB1089A88900F4004040B1322000EB2A
:101E9000C900B0FBF1F000F00700044308E0322075
:101EA00000EB09106421B0FBF1F000F00F000443D7
:101EB0002C8106B0BDE8F0874FF416510160002177
:101EC0008180C18001810C21418100218181704785
:101ED00010B502460020108A4FF2FF0318400B880D
:101EE0004C8823438C882343CC8823431843108297
:101EF00010BD0021018041808180C180704721B1E7
:101F0000828942F40052828104E082894DF6FF7397
:101F10001A4082817047F0B5034600240026002550
:101F2000002040F66A17B94200D100BF1846C1F33D
:101F3000421401F01F06012707FA06F5012C01D112
:101F40000C3004E0022C01D1103000E014301AB142
:101F500007682F43076002E00768AF430760F0BDE2
:101F60001AB1838A0B43838202E0838A8B43838284
:101F70007047028A4FF6F0731A400282028A0A43BF
:101F80000282704782894FF2FF731A4082818289F0
:101F90000A438281704721B1828942F00202828124
:101FA00004E082894FF6FD731A4082817047028AED
:101FB0004FF6DF731A400282028A0A430282704798
:101FC00021B1028A42F48042028204E0028A4BF686
:101FD000FF731A4002827047C1F308028280704783
:101FE00001468888C0F308007047818941F00101EB
:101FF00081817047028BD2B20283028B42EA0122B6
:1020000002837047028B02F47F420283028B0A43F1
:102010000283704721B1828A42F02002828204E06A
:10202000828A4FF6DF731A408282704721B1828A1A
:1020300042F01002828204E0828A4FF6EF731A4067
:102040008282704721B1828A42F00802828204E0D3
:10205000828A4FF6F7731A408282704721B18289D3
:1020600042F40042828103E08289C2F30E0282813F
:10207000704721B1828A42F40062828204E0828A3F
:102080004FF2FF731A4082827047828A4FF6FB73C9
:102090001A408282828A0A438282704721B1828AF0
:1020A00042F00202828204E0828A4FF6FD731A40F7
:1020B0008282704702460020B1F5007F00D100BF48
:1020C00013880B400BB1012000E00020704701F4A1
:1020D0000072B2F5007F00D100BFCA430280704792
:1020E00070B50246002400230025002040F66A1641
:1020F000B14200D100BFC1F3421501F01F03012618
:1021000006FA03F3012D02D19689334006E0022D31
:1021100002D1168A334001E0968A33400C12012620
:1021200006FA04F41688344013B10CB1012000E023
:10213000002070BD10B50022002340F66A14A142B1
:1021400000D100BF0A1201249440A3B2DC430480F2
:1021500010BD00000038014000440040004800402D
:10216000004C00400050004010B56FF00400FEF736
:10217000F4F92E4800682E49B0FBF1F02D490870A3
:102180000846007800EB4001C1EBC0104FF6FF712C
:1021900001EAC0002849088010BD0146254A12788E
:1021A0004A434FF0E0235A6100229A611A461269AD
:1021B00042F001021A6100BF4FF0E022106900F006
:1021C00001021AB100F48032002AF5D04FF0E0226B
:1021D000126922F001024FF0E0231A6100229A6195
:1021E00070470146144A12884A434FF0E0235A616F
:1021F00000229A611A46126942F001021A6100BF78
:102200004FF0E022106900F001021AB100F48032B0
:10221000002AF5D04FF0E022126922F001024FF0BF
:10222000E0231A6100229A6170470000000000203C
:1022300000127A008400002086000020A34A0A4091
:102240000243A34B1A6070470146072323EA0102A9
:1022500012029F4B1B1D18684FF6FF0318409D4B41
:10226000184310439A4B1B1D186070472DE9F0412D
:102270000746884614461D462846FFF7E5FFC5F188
:10228000040007FA00F60F20284100EA0800064380
:1022900006F00F06E21704EBD2625211920002F12F
:1022A000E022D2F800212146E31704EBD3635B114F
:1022B000A4EB431C012303FA0CF31A432046E31753
:1022C00004EBD3635B119B0003F1E023C3F800210F
:1022D0008148005D40EA06107F490855BDE8F0815D
:1022E00070B504460B46CE1701EB9676C6F3870011
:1022F000CE1701EB9676B610A1EB8606B606350E24
:10230000764B9B6943F00103744EB3614FEAB633D9
:1023100053F820300F26AE40B343714E46F82030BC
:10232000334653F8203004FA05F61E436C4B43F84D
:1023300020606C4B1B6801268E403343694E33602E
:1023400002F0010343B1674B0C331B6801268E403A
:102350003343644E0C36336002F0020343B1614BE9
:1023600008331E6801238B401E435E4B08331E60FA
:1023700070BD00B5002059490861C860142048614B
:1023800000208861C8610846006840F001000860CC
:10239000084640685449084050494860084600686B
:1023A000524908404D4908600846006820F48020E2
:1023B00008600846406820F4FE00486000208860FD
:1023C00000214FF00060FFF739FF00BD10B5404815
:1023D0000830006840F004003D49083108603F487B
:1023E000C06940F080503D49C8614148406840F4B0
:1023F00080703F4948600846006840F0040008606B
:102400000846006840F002000860FDF7E1FE10BDDC
:102410003048001D2E49091D0860704701464906D5
:102420002E4A926942F001022C4B9A612C4A083ADA
:10243000526822F0E0622A4B083B5A601A46526802
:102440000A435A60704730B504460025FFF791FFF4
:102450002248006840F480302049086000BF1F48CF
:102460000068400C0028FAD04FF480601B49486097
:10247000A01EC4B20846406840EA8440486008464E
:10248000406840F4803048601A48006840F03200EC
:10249000184908601148006840F080700F490860D2
:1024A00000BF0E480068400E0028FAD00B48406874
:1024B00040F002000949486005E008484068C0F360
:1024C000870505F00305022DF7D130BD80FFFF1F02
:1024D00008ED00E00000FA0500E400E00010024012
:1024E00008000140000401400000FFF8FFFFF6FE75
:1024F000007000400020024000BF704700BF4A4A01
:10250000128802F04002002AF9D0C2B2464B1B1DCD
:102510001A80704710B586B00446012144F20400C9
:10252000FEF7ACFC4FF40070ADF8140003208DF8FA
:10253000160018208DF8170005A93C48FEF77CF915
:102540004FF48060ADF8140004208DF8170005A941
:102550003648FEF771F925208DF8000003208DF82C
:1025600001008DF8020001208DF803006846FDF798
:10257000AAFF01940020ADF80800ADF80A00ADF8FC
:102580000C00ADF810000C20ADF80E0001A9264893
:10259000FFF729FC012240F225512348FFF7BBFC3D
:1025A00001212148FFF7ABFC06B010BD10B540F289
:1025B00025511D48FFF794FD10B31B48FFF710FD90
:1025C000C4B21B48008800F40040C8B9184800880D
:1025D00000F4804060B10A2C03D000201449088028
:1025E00020E01348008840F400401149088019E0B9
:1025F0000D2C06D10E48008840F480400C4908801C
:1026000010E00B480088C0F30D000A490C5408483C
:102610000088401C0649088008460088C72801DD5C
:102620000020088010BD0000003801400008014073
:102630008C0000204C02002008B501210420FEF788
:102640001DFC2020ADF8000048208DF803006946ED
:102650004B48FEF7F1F808BD01464A48006828B922
:1026600049480088401C484A108002E00020464A41
:1026700010804448006828B94448007810B9012007
:10268000424A107042480078B0B9404800780128AA
:1026900007D140480078401C3E4A107001203C4A57
:1026A00010703C480078022806D10020394A10708A
:1026B000394A10800220704732480068012804D14E
:1026C0000020324A1070324A1070324800780128D7
:1026D0001CD131480088401C2F4A108010460088C9
:1026E00088420ADD28480088884206DA0020294A04
:1026F0001070294A10800120DDE7234800888842B5
:1027000004DD0020234A1070234A10800020D2E705
:102710002248007838B11B48006820B900201F49C2
:1027200008700120704717480068012801D11B4933
:1027300008700020F6E71A48008840B91148006880
:1027400028B918480088401C1649088002E000207B
:102750001449088013480088C82807DD0120104963
:10276000088000200F490880012070470C4800882D
:10277000012802D100200A4908800020F5E7000066
:102780000008014014012142940000208E00002026
:102790008F00002090000020920000209600002072
:1027A0009A0000209800002010B50A461AB10123B3
:1027B000FE4C236002E00023FC4C2360002114E067
:1027C0000023FB4C236000F080031BB10123241F76
:1027D000236003E00023F64C241F23600123F44C04
:1027E00023604306180E4B1CD9B20829E8DB0123ED
:1027F000EE4C236010BD30B500241CE004F1B001A4
:10280000C8B20021FFF7D0FF00210846FFF7CCFF38
:1028100000211020FFF7C8FF002508E0E54901EB83
:10282000C501085D0121FFF7BFFF681CC5B2802DFF
:10283000F4DB601CC4B2082CE0DB30BD00B5002125
:102840008D20FFF7B1FF00211420FFF7ADFF00211D
:10285000AF20FFF7A9FF00BD00B500218D20FFF7D5
:10286000A3FF00211020FFF79FFF0021AE20FFF7FC
:102870009BFF00BD30B500240CE0002506E00020E1
:10288000CC4901EBC5010855681CC5B2802DF6DBAB
:10289000601CC4B2082CF0DBFFF7ADFF30BDF0B513
:1028A000144600267F2801DC3F2900DDF0BD0B46E1
:1028B000CF1701EB5777FF10C7F10707FAB2CF1711
:1028C00001EB5777FF10A1EBC707FDB2C5F1070772
:1028D0000123BB40DEB24CB1B64B03EBC0039B5CA3
:1028E0003343B44F07EBC007BB5408E0B14B03EBD5
:1028F000C0039B5CB343AF4F07EBC007BB5400BFA3
:10290000D4E72DE9F04F80460C4615461E46A346F7
:10291000A5F12000C5B200273EE00C2E07D105EB43
:102920004500A54901EB800010F8079004E0A3489A
:1029300000EB051010F807904FF0000A26E009F0B0
:10294000800028B121464046099AFFF7A8FF09E018
:10295000099808B9012000E00020024621464046BF
:10296000FFF79DFF4FEA49604FEA1069601CC4B24F
:10297000A4EB0B00B04205D15C4608F1010000F069
:10298000FF0806E00AF1010000F0FF0ABAF1080FA3
:10299000D5DB00BF781CC7B2B742BEDBBDE8F08F05
:1029A00010B50246012000E050430B1EA1F10104C6
:1029B000E1B2F9D110BD2DE9FF4F81B00746914634
:1029C0001E460E9D4FF0000A002439E0301B401EC9
:1029D000C1B20A20FFF7E4FFB9FBF0F00A21B0FB17
:1029E000F1F201FB1208BAF1000F16D1701EA042DD
:1029F00013DDB8F1000F0ED10120AB4605EBDB7102
:102A0000491001FB04710090C8B22B4620220299A4
:102A1000FFF777FF12E04FF0010A0120AB4605EB0C
:102A2000DB71491001FB04710090C8B208F130015C
:102A3000CAB22B460299FFF764FF00BF601CC4B204
:102A4000B442C3DB05B0BDE8F08F78B505460E464D
:102A5000144618E07A2D03DD002506F11000C6B2F9
:102A60003A2E04DD002005460646FFF703FF01204D
:102A7000009022780C2331462846FFF742FF05F1EB
:102A80000800C5B2641C20780028E3D178BD08B5E1
:102A900001210820FEF7F2F93820ADF800001020DF
:102AA0008DF8030002208DF8020069464448FDF7C6
:102AB000C3FE01210420FEF7E1F94FF40040ADF818
:102AC000000002208DF8020010208DF803006946F6
:102AD0003C48FDF7B1FE0120FEF707F80020FEF7A5
:102AE0003AF90020FDF763FD0020FDF7FEFF00200E
:102AF0002F49083908606420FFF773FB0120324931
:102B0000C1F88C010021AE20FFF74EFE0021D52038
:102B1000FFF74AFE00215020FFF746FE0021A820C3
:102B2000FFF742FE00213F20FFF73EFE0021D320A9
:102B3000FFF73AFE00210846FFF736FE002140204D
:102B4000FFF732FE00218D20FFF72EFE002114201A
:102B5000FFF72AFE00212020FFF726FE0021022099
:102B6000FFF722FE0021A120FFF71EFE0021C0205A
:102B7000FFF71AFE0021DA20FFF716FE00211220CF
:102B8000FFF712FE00218120FFF70EFE0021EF204B
:102B9000FFF70AFE0021D920FFF706FE0021F120F1
:102BA000FFF702FE0021DB2010E00000BC01214203
:102BB0009481214214030020EEA1000862A60008BF
:102BC000000C01400008014000802142FFF7ECFDAD
:102BD00000213020FFF7E8FD0021A420FFF7E4FDED
:102BE0000021A620FFF7E0FD0021AF20FFF7DCFD6C
:102BF000FFF740FE08BD000030B585B005460C4625
:102C000001210220FEF747F901210820FEF736F9DD
:102C10000120ADF8100028208DF8130004A96748A2
:102C2000FDF70AFE0220ADF8100010208DF8130009
:102C300002208DF8120004A96048FDF7FDFDADF8F3
:102C40000850ADF804400020ADF80A00ADF80600C9
:102C500001A95B48FEF74AFA08205A49088000207B
:102C60004880012088800020C88008815448FEF7F1
:102C7000D0FC1D208DF8000002208DF801008DF899
:102C8000020001208DF803006846FDF71CFC0122BC
:102C900009214B48FEF7A1FD01214948FEF782FDBD
:102CA00005B030BD10B50120474908600F20FFF77F
:102CB00074FA00204549C1F884014548007800F0C5
:102CC0008000E8B14248007800F03F0041490860C8
:102CD0000846008800040860084600683E490988E4
:102CE00008443C49086008460068AA2148434FF45C
:102CF0007A71B0FBF1F03749086000203449088050
:102D000010BD2F49103108883149097801F0800140
:102D100000294ED100F00101D1B12D49097801F00F
:102D20004001A9B12A49097801F03F013F290AD1A0
:102D30002749098841F08001254A11804FF6FF712B
:102D4000254A118004E022490988491C204A118043
:102D500000F0080169B31E49097801F0400199B1FA
:102D60001B49098841F08001194A118014493C31FE
:102D70000988194A118012492031098821F400710B
:102D80000F4A2032118014E00021114A1180124AAA
:102D900011800F49098841F040010D4A118000213E
:102DA000074A24321180111F098841F40071121F53
:102DB00011800021024A103211807047000C01403E
:102DC0000004004014070020848121420080214239
:102DD0009C000020500000209E00002008B501212A
:102DE0000820FEF74BF84FF47040ADF800001020BB
:102DF0008DF8030003208DF8020069462A48FDF78C
:102E00001BFD08BD30B589B005460C46FFF7E6FF4F
:102E10000121C802FEF732F801210420FEF72EF846
:102E20004FF41060ADF8200018208DF82300032027
:102E30008DF8220008A91D48FDF7FEFCADF81850DA
:102E4000ADF814400020ADF81A00ADF8160005A941
:102E50001748FEF74BF96020ADF804000120ADF8EB
:102E600006000020ADF80A00ADF80C0001A91048DA
:102E7000FEF779F901A90E48FEF74FFA01210C4837
:102E8000FEF79CFC08210A48FEF7BCFD0821084813
:102E9000FEF7D7FD01210648FEF784FD0121044815
:102EA000FEF780FC09B030BD000C01400008014075
:102EB000002C014000B587B001210846FDF7EBFF6B
:102EC00001210420FDF7DAFF0320ADF80000042003
:102ED0008DF8030069466148FDF7AEFC04A8FEF7D3
:102EE00031FC0020ADF810004FF6FF70ADF8140073
:102EF0000020ADF81600ADF8120004A94FF0804094
:102F0000FEF7F4F800231A4603214FF08040FEF745
:102F1000FCFC01A8FEF729FC0A20ADF80C0001A971
:102F20004007FEF776FB01218807FEF701FF01222B
:102F300011469007FEF751FC00214FF08040FEF74C
:102F4000C5FE01218807FEF72DFC07B000BD00B5C6
:102F500087B001210420FDF79EFF01210820FDF725
:102F60008DFFC020ADF8000004208DF803006946F5
:102F70003B48FDF761FC04A8FEF7E4FB0020ADF838
:102F800010004FF6FF70ADF814000020ADF81600E9
:102F9000ADF8120004A93348FEF7A8F800231A463A
:102FA00003213048FEF7B1FC01A8FEF7DEFB0A2042
:102FB000ADF80C0001A92B48FEF72BFB0121294895
:102FC000FEF7B6FE012211462648FEF706FC002158
:102FD0002448FEF77BFE01212248FEF7E3FB07B001
:102FE00000BD0146022904D003290BD0042919D1C0
:102FF0000FE04FF08042928C10B200224FF08043DD
:103000009A8411E0184A128810B20022164B1A80D6
:103010000AE0144A2432128810B20022114B2433E1
:103020001A8001E0002000BF00BF70470D4810303B
:1030300000880C481030008820F001000949103148
:10304000088070474FF08040008A4FF08040008A2F
:1030500020F001004FF080410882704700080140D5
:10306000000C0140000800402404004008B5012184
:103070000820FDF703FF4FF44070ADF8000010206A
:103080008DF8030003208DF802006946F748FDF72C
:10309000D3FB08BD10B5F548001D006820F0F00016
:1030A000F249091D08600846006840F030000860D9
:1030B0000120EF490860EF48D0F8240108B900204A
:1030C00010BD0120EA49091F0860FFF766F80020DB
:1030D000E849C1F8A401E6488038006808B100203A
:1030E000EEE70120FFF759F80020E149091F0860C9
:1030F0000120E5E710B5DD48001D006820F0F00074
:10310000DA49091D08600846006840F03000086090
:103110000020D749091F0860D649C1F8A401012041
:10312000FFF73BF80120D249091F0860D149C1F8D7
:10313000A401FFF732F810BD10B50024CB48001DE4
:10314000006820F0F000C949091D086008460068C1
:1031500040F0800008600120C5490860FFF71DF8B5
:103160000120C449C1F8A001FFF717F80AE0601C6C
:10317000C4B2322C03DDFFF7BDFF002010BD0120DB
:10318000FFF70BF8BA48803800680028EFD1B8493B
:10319000091F08600120F1E710B50020B449091F9C
:1031A0000860B248001D006820F0F000AF49091D1A
:1031B00008600846006840F0300008600020AD4913
:1031C000C1F8A4010120FEF7E8FF0120A849091F6A
:1031D0000860FEF7E2FF0020A649C1F8A00110BD7B
:1031E00010B50020A249091F0860A048001D006812
:1031F00020F0F0009D49091D08600846006840F075
:103200003000086001209B49C1F8A401FEF7C5FF0A
:1032100001209749091F0860FEF7BFFF002095496C
:10322000C1F8A00110BD70B504469048001D0068AB
:1032300020F0F0008D49091D08600846006840F044
:103240003000086000208A49091F0860002516E048
:10325000E009874908606006040E0120FEF79DFF23
:1032600001208449C1F8A001FEF797FF00208049A2
:10327000091F08600120FEF790FF681CC5B2082DE9
:10328000E6DB70BD2DE9F04105460E46174698462F
:10329000FFF700FF10B90120BDE8F0816906080EB4
:1032A000FFF7C1FFFFF748FF18B9FFF723FF012021
:1032B000F2E73046FFF7B7FFFFF73EFF00240BE0D1
:1032C00018F80400FFF7AFFFFFF736FF18B9FFF754
:1032D00011FF0020E0E7641CBC42F1DBFFF70AFFAE
:1032E0000020D9E770B5054600246048001D00683D
:1032F00020F0F0005D49091D08600846006840F0B4
:1033000080000860002617E000205949091F086066
:103310000220FEF742FF01205649C1F8A0016006D5
:10332000040E53488038006808B1601CC4B2022003
:10333000FEF733FF701CC6B2082EE5DB15B1FFF7B0
:103340002BFF01E0FFF74CFF204670BD2DE9F04157
:1033500006460F4614461D46FFF79CFE10B9012095
:10336000BDE8F0817106080EFFF75DFFFFF7E4FE90
:1033700018B9FFF7BFFE0120F2E73846FFF753FF09
:10338000FFF7DAFEFFF786FE012101EB4601C8B226
:10339000FFF749FFFFF7D0FE0DE0012C04D100201C
:1033A000FFF7A0FF287003E00120FFF79BFF2870C4
:1033B0006D1C601EC4B2002CEFD1FFF79BFE0020F5
:1033C000CEE770B505460E460024FFF763FE28469B
:1033D000FFF729FF641CFFF7AFFE3046FFF723FF1E
:1033E000641CFFF7A9FEFFF755FE691CC8B2FFF782
:1033F0001AFF641CFFF7A0FE0020FFF773FF0446CE
:10340000FFF778FE204670BD2DE9F041074688465B
:1034100015461E460024FFF73DFE3846FFF703FF22
:10342000FFF78AFE4046FFF7FEFEFFF785FEFFF737
:1034300031FE791CC8B2FFF7F6FEFFF77DFE00BF34
:103440000DE0681EA04204D00120FFF74BFF30556D
:1034500003E00020FFF746FF3055601CC4B2AC42C9
:10346000EFDBFFF747FE2046BDE8F081000C01408E
:10347000A4812142008021422DE9F04180460D4681
:1034800016461F460024FFF705FE4046FFF7CBFE19
:10349000FFF752FE2846FFF7C6FEFFF74DFE00BFBE
:1034A00006E0385DFFF7BFFEFFF746FE601CC4B2C2
:1034B000B442F6DBFFF71EFE0120BDE8F08170B5D7
:1034C00005460E46144631462846FFF77AFF20701F
:1034D000012070BD37B504460D4602AB01222946D6
:1034E0002046FFF7C9FF3EBD2DE9F8430746884651
:1034F00014461D46089E6A4641463846FFF7DFFFE0
:1035000028B3601CFF2101FA00F0C4F1080129442E
:10351000491EFF220A41104300F0FF09C5F10800CF
:1035200006FA00F0C6B2C4F1070006419DF800009B
:1035300000EA090000909DF80000304300909DF8DB
:10354000002041463846FFF7C5FFBDE8F88300205C
:10355000FBE7F8B506460F4614461D466A4639464F
:103560003046FFF7ACFF2DB10120A0409DF80010C0
:10357000084305E00120A0409DF8001021EA00006A
:10358000C0B200909DF8002039463046FFF7A2FFF8
:10359000F8BD000010B540F225517B48FEF7A0FDB4
:1035A00001287DD140F225517748FEF7C3FD7648CA
:1035B000FEF716FD7549087075480078052870D229
:1035C000DFE800F00311263D4B00704800780D281D
:1035D00005D16F480078401C6D49087002E000205A
:1035E0006B49087078E0694800780A2808D1002003
:1035F0006849087066480078401C6549087006E014
:10360000624800780D2802D000206149087063E00C
:103610005E48007860495F4A127888545D480078B7
:10362000401C5C49087008460078182806DB00201A
:10363000087057480078401C554908704CE05348C2
:1036400000780A2805D152480078401C504908707B
:1036500002E000204E4908703EE04C4800780D28FA
:1036600032D14D4800684D4908604B4840684C498C
:103670000860494880684B4908604748C0684A4923
:10368000086045480069494908604348406948491D
:10369000086045480068474908604448006801E000
:1036A0001BE015E0444908604448007801280BD12C
:1036B0004048006880F000403E4908603E4800688D
:1036C00080F000403C49086000203149087003E068
:1036D00000202F49087000BF00BF10BD10B586B094
:1036E000044601210820FDF7C9FB01218804FDF7EC
:1036F000D2FB2548FEF734FB4FF48060ADF8100094
:1037000003208DF8120018208DF8130004A92C480E
:10371000FDF792F84FF40060ADF8100004208DF82A
:10372000130004A92648FDF787F800940020ADF89F
:103730000400ADF80600ADF80800ADF80C000C2050
:10374000ADF80A0069461048FEF74DFB01210E480E
:10375000FEF7D5FB012240F225510B48FEF7DBFBBB
:1037600027208DF8140000208DF8150001208DF819
:1037700016008DF8170005A8FCF7A5FE00201149DA
:10378000088006B010BD000000480040C8000020BE
:10379000C9000020CA00002000360020AC00002034
:1037A000B0000020B4000020A4000020A8000020E9
:1037B000B8000020BC000020C0000020170000203E
:1037C000000C0140A00000201FB501210846FDF7B4
:1037D00055FB01210420FDF751FB4FF48050ADF85B
:1037E0000C0048208DF80F0003A91248FDF724F8BB
:1037F0000C210020FDF736F94FF480500190002095
:103800008DF808000C208DF8090001208DF80A00C1
:1038100001A8FCF731FF28208DF8000002208DF868
:10382000010001208DF802008DF803006846FCF7C6
:103830004AFE1FBD0008014008B501218020FDF7A8
:103840001DFB40F27E40ADF8000010208DF8030013
:1038500003208DF8020069461748FCF7EDFF40F29F
:103860007E411548FDF797F808BD08B50121802075
:10387000FDF704FB8020ADF8000028208DF8030040
:1038800003208DF8020069460B48FCF7D5FF08BD00
:1038900008B501218020FDF7F1FA4FF44070ADF832
:1038A000000048208DF8030003208DF802006946CF
:1038B0000148FCF7C1FF08BD001C014010B5002005
:1038C000FD490870FD490870FD4908600120FD4967
:1038D0000870FD49002000F06AFEFC49FC4800F039
:1038E00066FE0120F6490860FA49F94800F05FFEDB
:1038F0000120F249087010BD10B50020EE49087093
:10390000EE4908706FF01D00F3490860F34900208C
:1039100000F04DFEF249F34800F049FEF249F34849
:1039200000F045FE0020EC490860F149F14800F044
:103930003EFE0120E149087010BD10B50020EE499F
:1039400008600120DC4908700020DC4908701E2056
:10395000E1490860E949EA4800F029FE0020DE4913
:103960000860E849E64800F022FE0120D3490870CB
:1039700010BD10B50020D0490870D0490870D0495A
:1039800008600120CF490870CF49002000F00FFEE9
:10399000DD49CF4800F00BFE0120C9490860DB4932
:1039A000CB4800F004FE0120C449087010BD10B5DA
:1039B0000020D14908600120BF4908700020BF499C
:1039C0000870BF490860BF490870D149D14800F06C
:1039D000EEFD0120BA490860CF49CE4800F0E7FD6E
:1039E0000120B649087010BD10B50020B24908701A
:1039F000B2490870B24908600120B2490870C7494D
:103A0000C74800F0D4FD0120AD490860BF49C44853
:103A100000F0CDFD0120A949087010BD10B50020AF
:103A2000B54908600120A44908700020A349087026
:103A3000A3490860A3490870B549BA4800F0B7FD2A
:103A400001209F490860B449B64800F0B0FD01204C
:103A50009A49087010BD10B5002097490870974921
:103A6000087097490860012096490870AB49AE4834
:103A700000F09DFD012092490860A449AA4800F089
:103A800096FD01208D49087010BD10B500209A499F
:103A9000086001208849087000208849087088491A
:103AA0000860884908709A49A04800F080FD01200C
:103AB0008349086098499D4800F079FD01207F49BD
:103AC000087010BD10B500207B4908707B49087054
:103AD0007B49086001207B4908709549954800F0B2
:103AE00066FD0120764908608849924800F05FFD34
:103AF00001207249087010BD10B500207E49086091
:103B000001206D49087000206C4908706C490860FC
:103B10006C4908707E49834800F049FD01206849DE
:103B200008607D497F4800F042FD0120634908702C
:103B300010BD10B5002060490870604908706049E8
:103B4000086001205F4908707B497C4800F02FFD28
:103B500001205B4908606D49784800F028FD01208C
:103B60005649087010BD10B5002063490860012057
:103B70005149087000205149087051490860514965
:103B8000087063496E4800F012FD01204C4908603E
:103B900061496B4800F00BFD01204849087010BDD9
:103BA00010B5002044490870444908704449086031
:103BB0000120444908704449002000F0F8FC5E49A7
:103BC000604800F0F4FC01203D4908604F495D4821
:103BD00000F0EDFC01203949087010BD10B500203F
:103BE00045490860012034490870002033490870B5
:103BF00033490860334908704549514800F0D7FC03
:103C000001202F49086044494D4800F0D0FC0120B4
:103C10002A49087010BD10B50020274908702749AF
:103C2000087027490860012026490870464947481E
:103C300000F0BDFC0120224908603449434800F0EF
:103C4000B6FC01201D49087010BD10B500202A499E
:103C500008600120184908700020184908701849A8
:103C60000860184908702A49394800F0A0FC012072
:103C7000134908602849364800F099FC01200F4993
:103C8000087010BD10B500200B4908700B49087072
:103C90000B49086001200B49087025492D4800F0A8
:103CA00086FC01200649086018492A4800F07FFC7C
:103CB00001200249087010BD170000201F000020DD
:103CC00030000020160000200000FA430000FF44EE
:103CD0000080A7C300002F45280000200000AF434C
:103CE00000C0FD44008022C40040674500C02EC4CF
:103CF00000F08745004036C4A881234200007AC501
:103D000000403644008054C500807C450000964544
:103D1000002046C50080A743002014C500C0804590
:103D2000008031C40080314400A087C400A08744D3
:103D300000007F4500C0B2C400207D450000A041C6
:103D40000000AAC30000AA430020804500C03244FE
:103D500000C032C40040884410B5002028490860E3
:103D60000120284908700020274908702749086069
:103D7000274908702749284800F019FC01202349E9
:103D800008602649244800F012FC01201E490870F2
:103D900010BD10B500201B4908701B4908701B4955
:103DA000086001201A4908701D491E4800F0FFFBF9
:103DB0000120164908601C491A4800F0F8FB012050
:103DC0001149087010BD10B500200D490860012090
:103DD0000C49087000200C4908700C4908600C4917
:103DE00008700C49114800F0E2FB01200749086007
:103DF0000A490E4800F0DBFB01200349087010BDA2
:103E0000A8812342170000201F000020300000205E
:103E100016000020002046C5004088C4002014C5BC
:103E200000C080450000AF440000964500C032C489
:103E30000146002901DA484200E00846704700B513
:103E400003460A46002B07DD0020FE4908600120DA
:103E5000FD49C1F8B80106E00120FA4908600020D8
:103E6000F949C1F8B8011846FFF7E2FFF7490880A1
:103E7000002A08DD0020F349083908600120F249D2
:103E8000C1F8B00107E00120EE49083908600020C0
:103E9000ED49C1F8B0011046FFF7CAFFEB490C31FC
:103EA000088000BD70B50546E949284605F076FF53
:103EB0000CD3E849284606F071F807D3E6480078A5
:103EC000012803D0E548007801280ED10124002004
:103ED000DC49091F0860DC49C1F8BC01D94908392F
:103EE0000860D949C1F8B00100E00024204670BD47
:103EF00043F2C820DA4909684242914202DA41425B
:103F0000D74A1160D6490968814201DDD449086069
:103F1000D44909684242914202DA4142D14A1160D1
:103F2000D0490968814201DDCE49086070472DE91A
:103F3000FF47044689469246CB480078012807D1BE
:103F4000CA480078012803D1C948CA49086002E07C
:103F5000C948C8490860C948007801280FD1C3483A
:103F6000007805F007FF0646C248006880F000456B
:103F70003146284605F0B4FDC149086013E0C14848
:103F8000007801280CD1B948007805F0F3FE054609
:103F90002946B848006805F0A3FDB949086002E069
:103FA0000020B7490860B0480078012818D1B64809
:103FB0000068B0F5FA7F13D2B448007801280FD01A
:103FC000B348007801280BD0A848007805F0D2FE4D
:103FD00005462946A748006805F082FDA849086003
:103FE00004EB0901A1EB0A0005F0ACFEA949086049
:103FF000A948006805F0DAFC0746A84AA84B05F076
:10400000FBF9054604F03AFFA3490860A14800689F
:1040100005F0CCFCA14AA34BCDE9000105F0ECF979
:1040200005460E469C48006805F0C0FC07462A4637
:10403000334604F055FFCDE9020104F01FFF964915
:104040000860084601689848006805F0DBFC96495E
:1040500008608B4801689448006805F0DBFF9249CE
:10406000086092499048006805F098FF02D28F4896
:104070008D4908608E498C48006805F08FFE02D299
:104080008B48894908608B4801688748006805F0BB
:10409000B9FE0546884801687F48006805F0B2FE11
:1040A0000646294605F0AEFC84490860844800684D
:1040B000FFF7F8FE012803D067480078012802D1F5
:1040C0000020794908607D48006805F0FFFD04B0D4
:1040D000BDE8F0872DE9F04705460C464FF07E51CC
:1040E000284605F097FF804676480168204605F08F
:1040F00089FE814641467448006805F083FE824689
:10410000494605F07FFC074605F0E0FD06463046CF
:10411000BDE8F0876D48006818B900204E49087066
:1041200002E001204C49087070472DE9F04F89B03A
:104130008146B9F1010F1ED103F022FD64480068E9
:1041400080F000405E4908606249B1F900104842C1
:1041500005F0F8FD604908605E49B1F9040005F01A
:10416000F1FD5E4908605E49B1F9040005F0EAFD21
:104170005C49086005E14421D020FFF722F9804620
:104180004321D020FFF71DF908EB0027384605F042
:10419000D9FD04464821D020FFF713F98046472176
:1041A000D020FFF70EF908EB0027384605F0CAFDCE
:1041B00006463E21D020FFF704F980463D21D0205D
:1041C000FFF7FFF808EB0027384605F0BBFD8246F5
:1041D0004021D020FFF7F5F880463F21D020FFF79F
:1041E000F0F808EB0027384605F0ACFD05464FF027
:1041F0008E41204605F0D2FE05D24FF08F41204679
:1042000005F008FF04464FF08E41304605F0C6FE2B
:1042100005D24FF08F41304605F0FCFE06464FF0C8
:104220008E41504605F0BAFE05D24FF08F41504600
:1042300005F0F0FE82464FF08E41284605F0AEFEB6
:1042400058D251E0BC81214200802142342C0140EF
:10425000000020C2000020421D0000201F0000209E
:104260003400002038000020560000201C000020F0
:1042700000005C42780100200000DC4218000020B1
:104280007001002019000020500000201A000020BA
:104290001B000020680100206C0100209A99999968
:1042A0009999E93F9999C93F7401002000409C46C3
:1042B00000409CC66C0000206800002064010020C3
:1042C0004000002064000020600000201401214212
:1042D000D4010020C001002044000020480000203C
:1042E000C60100205C0000204FF08F41284605F0F9
:1042F00091FE0546FC480460284605F057FBCDE9D1
:104300000001504605F052FB0746DDE9002304F0AA
:10431000C1FC0022F54BCDE9020105F06DF8F44A2D
:10432000F44BCDE9040104F097FECDE9060104F059
:10433000A5FD8346204605F039FB4FF06632EE4B73
:10434000CDE9060104F088FE074604F097FD044617
:10435000EA480078022804D12146584603F0EEFDD1
:1043600007E0E6480078032803D12146584603F0C9
:10437000FCFEE3480068E3490860E3480660E34860
:10438000056009B0BDE8F08F10B5E148006800286D
:104390005DD14FF48050DF490860DF48007808B9EC
:1043A000012000E00020DC49087008460078012860
:1043B00005D1D2480078FFF7B8FE002010BD0220DA
:1043C000FEF70FFED54908600420FEF70AFED44927
:1043D0000860CA480078FFF7A8FEFFF79BFEC248B6
:1043E0000168C8480068FFF775FECE490860CE48EE
:1043F0000268CB480168C9480068FFF798FDCB49BF
:104400000860C848006809680844C9490968401A32
:10441000C8490968401AC8490860C2480068C349C9
:1044200009680844C24909680844C249096808443F
:10443000C2490860FFF75CFDB2480068FFF732FD33
:1044400028B9BE480168BC480068FFF7F8FC0020A6
:10445000B4E72DE9F84F05460E469146B848007876
:10446000582191FBF0F7384605F06CFC0446DFF864
:10447000D4A24FF0000BB4480078012803D0B34811
:104480000078012834D14FF07E51B148006805F022
:10449000B9FAAF49074608604FF07E5105F0E2FBDC
:1044A00007D1A819FFF7C4FC074605F04BFCA94942
:1044B0000860A8480168A84805F012FBA7490860F1
:1044C0000846006805F072FA07464FF03332A44BF5
:1044D00004F056FF02D2A348A0490860A2499F48B1
:1044E000006805F05BFD0BD29F489C49086007E01F
:1044F0009E489A49086000209549086095490860DF
:1045000091480078012808D19448016898480068CB
:1045100005F080FD964908600FE08C48007801287E
:1045200008D18E4801689248006805F06BFA9049FE
:10453000086002E000208E49086021468C4800682F
:1045400005F02CFD01D28A48046084F000478848B9
:104550000168384605F022FD03D284F0004084490A
:10456000086084480078012803D083480078012837
:1045700002D14FF07C5B01E04FF0000B59464846FA
:1045800005F040FC00907A48006880F000485146F1
:10459000404605F037FC0746009905F03BFD77499A
:1045A00008600846006805F091FBBDE8F88F2DE92A
:1045B000F84F82468B4654E271497248006805F014
:1045C00021FA0446514605F0E9FC2DD26C496D48AC
:1045D000006805F01FFD0446514605F0DFFB23D2BD
:1045E00000216948006805F03DFB1DD0644967481B
:1045F000006805F007FA0446594605F0CFFC13D2CF
:104600005F496248006805F005FD0446594605F01B
:10461000C5FB09D200215E48006805F023FB03D0EA
:104620000020414908601DE256480168504605F0E7
:10463000F1FC5849086055480168584605F0EAFC05
:1046400055490860534801685348006805F048FA26
:10465000009005F0ABF9804604F00CFA06464F4A8C
:104660004F4B04F0C9FE044604F008FC4D490860B5
:1046700000214848006805F091FC0DD20021464811
:10468000006805F08BFC07D200214648006805F061
:10469000B9F945490860A1E000213E48006805F0ED
:1046A0007DFB0DD200213C48006805F077FC07D265
:1046B0003E493C48006805F0A5F93B4908608DE09B
:1046C00000213448006805F069FC74D200213248AA
:1046D000006805F063FB6ED235493248006805F08A
:1046E00091F93149086079E044000020008066407B
:1046F000F1D4C853FB210940666630401400002005
:10470000FC01002040000020480000205C00002048
:104710003001214214040140E0000020200000206C
:1047200024000020CC00002028000020D000002021
:10473000D4000020D80000203400002038000020E1
:104740001C000020000028421A0000201B0000204E
:104750008C010020840100200000484288010020D4
:104760003333E33F9A99193F000040406666663F45
:104770007C0100201800002019000020800100208A
:104780000000C842BC000020A4000020C00000209F
:10479000A8000020EC000020F0000020CB67791E6C
:1047A000DCA54C4008010020040100200000344337
:1047B0000000B443FFE70021AC48006805F0EEFAC2
:1047C0000CD20021AA48006805F0E8FA06D2A949EF
:1047D000A948006805F016F9A8490860A849A94841
:1047E000006805F0DBFB0DD8A249A648006805F07B
:1047F000D5FA07D2A449A348006805F003F9A349F4
:10480000086012E09E499F48006805F0C7FA0CD284
:104810009F499C48006805F0C1FB06D89D4999480E
:10482000006805F0EFF899490860984801689348D6
:10483000006805F0EFFB98490860984996480068C1
:1048400005F0ACFB0CD892499348006805F0A6FA35
:1048500006D291480168914805F0DCFB9049086058
:1048600084498D48006805F099FB0CD28D498A482F
:10487000006805F093FA06D887480168894805F072
:10488000C9FB89490860894801688348006805F0C8
:10489000B9F88649086008460168002005F0B2FAB8
:1048A0008349086083498248006805F077FB02D895
:1048B00080487F490860804801687748006805F0B3
:1048C000A9FB7E490860744800687B4908607B4802
:1048D0000168002005F096FA05466F48016878489F
:1048E00005F090FA064672480168304605F08AF8ED
:1048F0000446294605F086F8724908607248016846
:104900006748006805F07EF86F490860084601684E
:10491000002005F077FA6D49086066496B48006829
:1049200005F03CFB02D863486849086068480168A4
:104930005B48006805F06EFB6649086058480068EF
:10494000634908605D480168002005F05BFA054690
:10495000534801685A4805F055FA06465B48016815
:10496000304605F04FF80446294605F04BF85A4901
:1049700008605A4801684C48006805F043F85749F8
:10498000086008460168002005F03CFA54490860B8
:1049900048495348006805F001FB02D84548504992
:1049A0000860504801684048006805F033FB4E49F4
:1049B00008603D4800684B49086040480168002095
:1049C00005F020FA0546384801683D4805F01AFA16
:1049D000064643480168304605F014F80446294667
:1049E00005F010F84149086022492B48006805F09D
:1049F000D5F90ED826492848006805F0CFFA08D81E
:104A00003048006880F00044204605F05FF93849DE
:104A100008601F492048006805F0C0F90BD21F4903
:104A20001D48006805F0BAFA05D82B48006805F063
:104A30004DF92F4908601B491748006805F0AEF989
:104A40000BD80C491448006805F0A8FA05D227488D
:104A5000006805F03BF926490860254800682549AB
:104A60000860A9E500BF0020BDE8F88FEC00002039
:104A7000F000002000003443080100200401002061
:104A80000000B4C2AC0000200000B4422C010020A1
:104A9000000034C30000E1431C0100200000B4C347
:104AA000380100200000B4435001002028010020FC
:104AB000100100200000A04124010020300100204E
:104AC0000000F041200100204401002034010020BA
:104AD0003C01002048010020400100205C01002032
:104AE0004C010020540100206001002058010020EA
:104AF00090010020D800002038B50446FB4890F80B
:104B00002400C0B114B10220009001E00020009008
:104B1000F64A1268D17BF54A526810786B4601223A
:104B2000FEF7B0FB10B14FF0FF3038BD9DF800101C
:104B3000EE48417423E0ED48807A10B94FF0FF3021
:104B4000F3E724B1E948407C08B10020EDE714B157
:104B50000120009001E000200090E44A1268D17B1F
:104B6000E24A526810786B460122FEF78BFB10B1C7
:104B70004FF0FF30D9E79DF80010DC484174002069
:104B8000D3E738B5002419E0D8480068C07AA042BD
:104B900004D0D6480068407DA04200D10CE0D34943
:104BA000496808786B4601222146FEF7CFFB10B119
:104BB0004FF0FF3038BD00BF601CC4B2CB48406826
:104BC0000079A042E0DC0020F4E770B504460D4611
:104BD000C6480068C07AA04204D0C4480068407D3E
:104BE000A04202D14FF0FF3070BDC048406800794C
:104BF000A04202DC4FF0FF30F6E7BC494968087874
:104C00002B4601222146FEF7A1FBEDE738B504460D
:104C1000B64890F82300A04201D1002038BD14B15D
:104C20003020009001E000200090B048807C20B14E
:104C30009DF8000040F002000090AC4890F822007F
:104C400020B19DF8000040F080000090A74A126853
:104C5000117DA64A526810786B460122FEF712FBBE
:104C600010B14FF0FF30D9E7A04880F82340002072
:104C7000D4E738B5044604F0700010B1012000906C
:104C800005E014B10020009001E040200090974A18
:104C90001268917C954A526810786B460122FEF7A3
:104CA000F1FA20B1002191488172481E38BD9DF86B
:104CB000000020F040018D4801730020009004F0B6
:104CC000400020B99DF8000040F00400009004F07E
:104CD000200020B99DF8000040F00200009004F090
:104CE000100020B99DF8000040F00100009004F091
:104CF000080020B99DF8000040F0380000907B4A81
:104D00001268D17C794A526810786B460122FEF70E
:104D1000B9FA20B1002175488172481EC6E724B156
:104D2000082C02D00020FFF771FF70488472002128
:104D300001753220FDF755FA0020B7E738B5044673
:104D40006A48807CA04201D1002038BD002C46D0AA
:104D5000664A12681179654A526810786B460122DA
:104D6000FEF7F4FA10B14FF0FF30EEE79DF80000C7
:104D700020F0200000905D4A126811795B4A526869
:104D800010786B460122FEF77DFA10B14FF0FF302C
:104D9000DBE70320FDF725FA02200090534890F846
:104DA000220020B19DF8000040F0800000904F48A4
:104DB00090F8230020B19DF8000040F030000090F2
:104DC0004A4A1268117D494A526810786B4601229E
:104DD000FEF758FA002851D04FF0FF30B5E7434AAC
:104DE00012681179414A526810786B460122FEF729
:104DF000ADFA10B14FF0FF30A7E73C48807A00F0E1
:104E0000010028B19DF8000040F02000009004E06F
:104E10009DF8000020F020000090344A12681179BB
:104E2000324A526810786B460122FEF72BFA10B115
:104E30004FF0FF3089E70320FDF7D3F92B4890F8B6
:104E4000220010B18020009001E00020009027484F
:104E500090F8230020B19DF8000040F03000009051
:104E6000224A1268117D214A526810786B4601224D
:104E7000FEF708FA10B14FF0FF3066E71B48847464
:104E8000002062E708B51948807A10B94FF0FF306A
:104E900008BD00200090154A1268D17B134A526861
:104EA00010786B460122FEF7EDF910B14FF0FF309C
:104EB000EEE70E4A126851790C4A526810786B4638
:104EC0000122FEF7DFF910B14FF0FF30E0E7074AAB
:104ED00012681179054A526810786B460122FEF774
:104EE000D1F928B14FF0FF30D2E700009401002043
:104EF000F74890F82400002850D00C200090F44A85
:104F000012681179F24A526810786B460122FEF756
:104F1000B9F910B14FF0FF30BAE7C0200090EC486B
:104F2000807A00F0010020B19DF8000040F02000E0
:104F30000090E74A12681179E54A526810786B468A
:104F40000122FEF79FF910B14FF0FF30A0E7E048D3
:104F5000407C10B10220009001E000200090DC4A6B
:104F60001268D17BDA4A526810786B460122FEF74C
:104F700089F910B14FF0FF308AE700200090D44A41
:104F800012685179D24A526810786B460122FEF7B6
:104F900079F9002852D04FF0FF3079E704200090D3
:104FA000CB4A12681179CA4A526810786B460122BE
:104FB000FEF768F910B14FF0FF3069E7C448807C14
:104FC00020B9C348807A00F0010010B94020009059
:104FD00001E060200090BE4A12681179BC4A526814
:104FE00010786B460122FEF74DF910B14FF0FF30FB
:104FF0004EE7B748407C10B10120009001E000204E
:105000000090B34A1268D17BB14A526810786B465F
:105010000122FEF737F910B14FF0FF3038E7AC4A04
:1050200012685179AA4A52681078A94B10330122AC
:10503000FEF728F910B14FF0FF3029E7002027E7ED
:1050400070B50446002624F00104A14890F824001D
:1050500008B1002070BD9E48807A10B94FF0FF3033
:10506000F8E79B48057C807A2040994908740846F7
:10507000007CA04202D04FF0FF3600E0002614B9B9
:105080009348007D18B10120FFF736FD02E00020B3
:10509000FFF732FD3CB1FFF7F5FE20B18C480574F7
:1050A0004FF0FF30D6E73046D4E738B5044688489D
:1050B000807A10B94FF0FF3038BDBC2C02DB0120E4
:1050C000009015E0622C02DB0220009010E02A2CF8
:1050D00002DB032000900BE0142C02DB0420009084
:1050E00006E00A2C02DB0520009001E0062000907B
:1050F0007748C07A9DF80010884201D10020DBE794
:10510000734A12689178724A526810786B4601228D
:10511000FEF7B8F810B14FF0FF30CDE79DF8001062
:105120006B48C1720020C7E738B50446282C02DD61
:105130004FF0FF3038BDDCB90020FFF767FD0020DD
:105140008DF8000007208DF80100614A1268917CFB
:105150005F4A526810786B460222FEF793F810B14E
:105160004FF0FF30E6E70021594801750020E1E7E4
:105170000120FFF74BFD20208DF80000012C06D107
:1051800000208DF801000520FFF78FFF17E0052CA8
:1051900006DC01208DF801000520FFF786FF0EE0F8
:1051A000142C06DC02208DF801000A20FFF77DFF99
:1051B00005E003208DF801001420FFF776FF9DF82D
:1051C0000100072101EB8010C0B28DF80100404AB8
:1051D0001268917C3E4A526810786B460222FEF7B4
:1051E00051F810B14FF0FF30A4E708213848817220
:1051F00000210173012101750020FFF721FF00202C
:1052000098E738B504463248807A10B94FF0FF303D
:1052100038BD2F4890F8240010B14FF0FF30F7E769
:105220002B48007D50B134B1282C04DCE0B2FFF7EC
:105230007BFF0020ECE70020FFF776FF042C01DA6B
:10524000042404E0B4F57A7F01DD4FF47A744FF45E
:105250007A7090FBF4F0401EC0B200901C4A1268B5
:1052600051781B4A526810786B460122FEF70AF803
:1052700010B14FF0FF30CBE79DF80000401C4FF419
:105280007A7191FBF0F081B21148C1810146C98960
:105290004810FFF70AFF0020BAE738B504460C486B
:1052A000807A10B94FF0FF3038BD022C06D0042CA4
:1052B00007D0082C08D0102C0FD10BE00020009054
:1052C0000EE0082000900BE01020009008E00000A5
:1052D000940100201820009002E04FF0FF30E3E737
:1052E00000BFF948407A9DF80010B0EBE10F01D102
:1052F0000020D9E7F44A1268D179F34A526810784D
:105300006B460122FDF7BEFF10B14FF0FF30CBE737
:105310009DF80000C110EC4841720020C4E738B588
:105320000446E948807A10B94FF0FF3038BDFA2CB6
:1053300009D0B4F5FA7F09D0B4F57A7F09D0B4F575
:10534000FA6F0CD108E0002000900BE008200090DC
:1053500008E01020009005E01820009002E04FF0D7
:10536000FF30E3E700BFD848007A9DF80010B0EBAB
:10537000E10F01D10020D9E7D34A12689179D24ACE
:10538000526810786B460122FDF77CFF10B14FF098
:10539000FF30CBE79DF80000C010CB490872002019
:1053A000C4E71CB580208DF80000C74A1268917CC4
:1053B000C54A526810786B460122FDF763FF10B1B1
:1053C0004FF0FF301CBD6420FCF70BFF00208DF870
:1053D0000000BD4A1268917CBB4A526810786B4647
:1053E0000122FDF74FFF10B14FF0FF30EAE7B64A58
:1053F0001268917DB44A526810786B460622FDF718
:10540000A5FF10B14FF0FF30DCE79DF80500C007A5
:10541000400F9DF8031001F0010140EA41009DF8A2
:10542000011001F0010140EA010494B1012C03D103
:105430000121A548C17431E0022C03D10021A2480A
:10544000C1742BE02146A1A002F022FF4FF0FF30F3
:10545000B8E79D4A1268D1789B4A526810786B462B
:105460000122FDF773FF10B14FF0FF30AAE79DF85E
:10547000000000F00F042CB99E4802F009FF4FF025
:10548000FF309FE7042C06D19BA002F001FF012111
:105490008D48C17402E000218B48C174FF218A4805
:1054A0008172FF2088490872FF2187484172C172CA
:1054B0004FF6FF71C181FF210174817401210173D5
:1054C00080F82210002180F82310417501751630F4
:1054D000016041608160163880F8241080F8251042
:1054E000C1844FF4FA60FFF71AFF10B14FF0FF309C
:1054F00068E70220FFF7D1FE10B14FF0FF3061E7FF
:105500002A20FFF7D2FD10B14FF0FF305AE73220CA
:10551000FFF777FE10B14FF0FF3053E70020FFF7A1
:105520008FFD10B14FF0FF304CE70020FFF706FC75
:1055300010B14FF0FF3045E70020FFF79AFB002045
:1055400040E770477CB504460D465F48807A00F01E
:10555000700010B94FF0FF307CBD5B4A1268117BC0
:10556000594A526810786B460622FDF7EFFE10B1DB
:105570004FF0FF30F0E79DF801009DF8001040EA81
:10558000012000B220809DF803009DF8021040EA3F
:10559000012000B260809DF805009DF8041040EAEB
:1055A000012000B2A08015B12846FFF7CAFF0020F5
:1055B000D2E77CB504460D464348807A00F00800E7
:1055C00010B94FF0FF307CBD3F4A1268517B3E4A14
:1055D000526810786B460622FDF7B8FE10B14FF006
:1055E000FF30F0E79DF801009DF8001040EA01202F
:1055F00000B220809DF803009DF8021040EA0120CF
:1056000000B260809DF805009DF8041040EA01207A
:1056100000B2A08015B12846FFF793FF0020D2E723
:105620002DE9FE4F05460C462748807A18B94FF001
:10563000FF30BDE8FE8F244A1268917B224A5268EF
:10564000107802AB0222FDF781FE10B14FF0FF305F
:10565000EFE79DF809009DF8081040EA012006B226
:1056600014B12046FFF76DFF17494968C88804F058
:1056700081FB154901904968B1F9080004F062FB0B
:105680008346304604F05EFB5946009004F0C2FCAD
:105690008246019904F024FA81461F4904F0B2F9C8
:1056A00080464FF08F4104F0ADFB074604F00EFB3F
:1056B00028600020BDE710B588B004461CB94FF043
:1056C000FF3008B010BD29E094010020556E7375BD
:1056D00070706F7274656420736F66747761726541
:1056E0002070726F64756374207265762025642E55
:1056F0000A00000090B9000848616C662073656E6E
:105700007369746976697479207061727420666F48
:10571000756E642E0D0A000000000C42206830B93E
:10572000606820B9A06810B9002008B010BDFA491F
:105730004968087806AB03221146FDF707FE10B151
:105740004FF0FF30F1E79DF81800082101EB201021
:1057500000F00F00ADF800009DF8190001EB2010DB
:1057600000F00F00ADF802009DF81A0001EB2010C8
:1057700000F00F00ADF8040020684100BDF9000002
:10578000403091FBF0F000B2ADF8100060684100CD
:10579000BDF90200403091FBF0F000B2ADF812000C
:1057A000A0684100BDF90400403091FBF0F000B268
:1057B000ADF81400D8494968087806AB06221146AE
:1057C000FDF7C4FD10B14FF0FF30AEE79DF81900B2
:1057D0009DF8181040EA012000B2ADF808009DF8CD
:1057E0001B009DF81A1040EA012000B2ADF80A0033
:1057F0009DF81D009DF81C1040EA012000B2ADF894
:105800000C00BDF81000BDF80810084400B2ADF857
:105810001000BDF81200BDF80A10084400B2ADF83F
:105820001200BDF81400BDF80C10084400B2ADF829
:105830001400BDF81000000A8DF81800BDF8100023
:10584000C0B28DF81900BDF81200000A8DF81A00D8
:10585000BDF81200C0B28DF81B00BDF81400000A9C
:105860008DF81C00BDF81400C0B28DF81D00AA49C7
:105870004968087806AB06221146FDF703FD10B112
:105880004FF0FF3051E700204FE70146A248007A71
:1058900030B1012807D0022809D003280FD10AE02F
:1058A000FA2008800EE04FF4FA7008800AE04FF406
:1058B0007A70088006E04FF4FA60088002E0002069
:1058C000088000BF00BF0020704701469248407A20
:1058D00030B1012807D0022808D003280CD108E0F5
:1058E000022008700BE00420087008E0082008700F
:1058F00005E01020087002E04FF0FF30704700BF55
:105900008548C07C18B108784006000E0870002059
:10591000F4E701468048C07A082817D2DFE800F093
:105920001704070A0D101318BC20088013E062202A
:10593000088010E02A2008800DE0142008800AE08A
:105940000A20088007E00520088004E000BF00BFAF
:105950000020088000BF00BF0020704701466E484D
:1059600090F8240010B14FF0FF3070476A48C089AA
:1059700008800020F9E7014600200880401E70479B
:1059800001464FF0FF30704701466348007A30B15E
:10599000012807D0022808D003280CD108E05F486E
:1059A00008600BE05E48086008E05E48086005E0BB
:1059B0005D48086002E04FF0FF30704700BF0020F4
:1059C000FBE701465448407A30B1012808D002284C
:1059D0000AD0032810D10BE04FF4804008800EE07D
:1059E00041F69C7008800AE04FF48050088006E081
:1059F0004FF40060088002E04FF0FF30704700BFB6
:105A00004548C07C10B10888401008800020F5E7A8
:105A100001464148007C08700020704701463E481E
:105A2000807A10B10120087001E000200870002089
:105A3000704738B504463848807A10B94FF0FF30C7
:105A400038BD354A1268117C334A526810786B466B
:105A50000222FDF77BFC10B14FF0FF30F0E79DF81C
:105A600001009DF8001040EA012000B220800020D3
:105A7000E6E72DE9FE4F0746884692461D46DDF8CB
:105A800030B000260024244890F8240010B1601E95
:105A9000BDE8FE8F002028701F48807A10B94FF0B3
:105AA000FF30F5E71C48007C10B94FF0FF30EFE7FE
:105AB0001948007C00F0400008B1B01CC6B216487E
:105AC000007C00F0200008B1B01CC6B21248007C77
:105AD00000F0100008B1B01CC6B20F48007C00F006
